:1000000026C040C03FC03EC03DC03CC09FC03AC0BB
:1000100039C038C037C036C035C034C033C032C034
:1000200031C030C02FC057C03BC03DC03FC041C0F1
:1000300043C045C047C049C04BC075C059C05BC034
:100040005DC05FC061C063C065C067C069C0112486
:100050001FBECFE5D4E0DEBFCDBF10E0A0E6B0E02C
:10006000E4E3F8E002C005900D92A036B107D9F79D
:1000700020E0A0E6B0E001C01D92A836B207E1F78B
:100080002ED1D6C3BDCF0F931F93613039F5082F02
:1000900010E00A30110510F5F801ED5EFF4F0994EC
:1000A00081E682BB42C08BED82BB3FC083EF82BB47
:1000B0003CC087E682BB39C087EB82BB36C08FEB82
:1000C00082BB33C081EE82BB30C08FEF82BB2DC0BC
:1000D00087EF82BB2AC08DEF82BB27C0611125C08C
:1000E00090E08A30910508F5FC01E35EFF4F09942A
:1000F00080E682BB1AC08AED82BB17C082EF82BB4A
:1001000014C086E682BB11C086EB82BB0EC08EEBAC
:1001100082BB0BC080EE82BB08C08EEF82BB05C0E5
:1001200086EF82BB02C08CEF82BB1F910F910895B6
:100130008EB588608EBD89B7806189BF8FE08BBD29
:1001400082E48ABD8EB582608EBD08951F920F92A3
:100150000FB60F9211242F933F934F935F936F939A
:100160007F938F939F93AF93BF93EF93FF93809170
:100170006000811107C0AA98A998A89A60E08091B0
:10018000660081DF80916000813041F4AA98A99ACD
:10019000A898609161008091640075DF8091600093
:1001A000823039F4AA9AA998A89860E080916200F8
:1001B0006ADF809160008F5F833018F48093600065
:1001C00002C010926000FF91EF91BF91AF919F919B
:1001D0008F917F916F915F914F913F912F910F90F0
:1001E0000FBE0F901F9018958F929F92AF92BF9263
:1001F000CF92DF92EF92FF926B017C0120E030E022
:1002000048EC52E438D18823DCF581E0809361002A
:1002100020E030E040E251E4C701B60130D19CD18A
:1002200070936700609366009B01220F331F660F77
:10023000771F660F771F660F771F620F731F80E0AF
:1002400090E0B6D19B01AC01C701B601AFD04B0124
:100250005C0182D1709365006093640080E090E05F
:10026000A7D19B01AC01C501B401A0D020E030E0D2
:1002700040E251E453D270D1709363006093620006
:1002800020E030E048EC52E4C701B60143D28823B5
:10029000ECF0C701B6015BD19B0110926100CB016C
:1002A00064E670E09ED27093670060936600EAE0B7
:1002B000F0E0BF0196D27093650060936400C901BD
:1002C000BF018FD29093630080936200FF90EF9004
:1002D000DF90CF90BF90AF909F908F90089528DFD0
:1002E0008FEF81BB87E084BB17BA83E088BB78942B
:1002F00060E070E08EE594E477DF2FEF84E39CE02C
:10030000215080409040E1F700C0000060E070E8BC
:1003100081EE93E469DF2FEF84E39CE0215080407D
:100320009040E1F700C00000E12CF12C00E010E06B
:10033000D0E0C0E0D12C88248394912CA12CB12C46
:10034000C12C16C0ED2C20E030EC49E754E4602FBE
:10035000712F8D2F9C2FDED1181654F4092D1A2DD4
:10036000DB2DCC2D05C0E82C092D1A2DDB2DCC2D35
:10037000602F712F8D2F9C2F37DFB19911C0F11095
:1003800010C020E433E141E65EE3602F712F8D2F32
:100390009C2F0DD0062F172FD82FC92FF82C01C056
:1003A000FD2CB099CFCFEE20F1F2CDCF5058BB2726
:1003B000AA270ED075C166D130F06BD120F031F490
:1003C0009F3F11F41EF45BC10EF4E095E7FB51C1B1
:1003D000E92F77D180F3BA1762077307840795076F
:1003E00018F071F49EF58FC10EF4E0950B2EBA2F24
:1003F000A02D0B01B90190010C01CA01A00111242B
:10040000FF27591B99F0593F50F4503E68F11A16D6
:10041000F040A22F232F342F4427585FF3CF469567
:1004200037952795A795F0405395C9F77EF41F1689
:10043000BA0B620B730B840BBAF09150A1F0FF0F53
:10044000BB1F661F771F881FC2F70EC0BA0F621F3F
:10045000731F841F48F4879577956795B795F7952F
:100460009E3F08F0B3CF9395880F08F09927EE0FC1
:10047000979587950895D9D008F481E008950CD018
:100480000FC107D140F0FED030F021F45F3F19F0EA
:10049000F0C0511139C1F3C014D198F39923C9F3B5
:1004A0005523B1F3951B550BBB27AA27621773077A
:1004B000840738F09F5F5F4F220F331F441FAA1F2E
:1004C000A9F333D00E2E3AF0E0E830D091505040EE
:1004D000E695001CCAF729D0FE2F27D0660F771F9C
:1004E000881FBB1F261737074807AB07B0E809F07E
:1004F000BB0B802DBF01FF2793585F4F2AF09E3F13
:10050000510568F0B6C000C15F3FECF3983EDCF3E4
:10051000869577956795B795F7959F5FC9F7880F8B
:10052000911D9695879597F90895E1E0660F771FDD
:10053000881FBB1F621773078407BA0720F0621B6E
:10054000730B840BBA0BEE1F88F7E095089504D067
:100550006894B111D9C00895BCD088F09F5790F02D
:10056000B92F9927B751A0F0D1F0660F771F881FD8
:10057000991F1AF0BA95C9F712C0B13081F0C3D0F3
:10058000B1E00895C0C0672F782F8827B85F39F091
:10059000B93FCCF3869577956795B395D9F73EF437
:1005A00090958095709561957F4F8F4F9F4F0895DF
:1005B000E89409C097FB3EF49095809570956195FD
:1005C0007F4F8F4F9F4F9923A9F0F92F96E9BB27B3
:1005D0009395F695879577956795B795F111F8CF2F
:1005E000FAF4BB0F11F460FF1BC06F5F7F4F8F4F9A
:1005F0009F4F16C0882311F096E911C0772321F090
:100600009EE8872F762F05C0662371F096E8862F27
:1006100070E060E02AF09A95660F771F881FDAF77E
:10062000880F9695879597F90895990F0008550FAB
:10063000AA0BE0E8FEEF16161706E807F907C0F068
:1006400012161306E407F50798F0621B730B840B70
:10065000950B39F40A2661F0232B242B252B21F44A
:1006600008950A2609F4A140A6958FEF811D811DEA
:10067000089597F99F6780E870E060E008959FEF24
:1006800080EC089500240A94161617061806090629
:10069000089500240A9412161306140605060895F8
:1006A000092E0394000C11F4882352F0BB0F40F480
:1006B000BF2B11F460FF04C06F5F7F4F8F4F9F4FC0
:1006C000089557FD9058440F551F59F05F3F71F042
:1006D0004795880F97FB991F61F09F3F79F08795A9
:1006E0000895121613061406551FF2CF4695F1DF32
:1006F00008C0161617061806991FF1CF86957105C2
:10070000610508940895E894BB2766277727CB01F5
:1007100097F908958ADF08F48FEF08950BD0C0CFC2
:10072000B1DF28F0B6DF18F0952309F0A2CFA7CFEC
:100730001124EACFC6DFA0F3959FD1F3950F50E0C7
:10074000551F629FF001729FBB27F00DB11D639F83
:10075000AA27F00DB11DAA1F649F6627B00DA11D29
:10076000661F829F2227B00DA11D621F739FB00DCF
:10077000A11D621F839FA00D611D221F749F33273F
:10078000A00D611D231F849F600D211D822F762FD8
:100790006A2F11249F5750408AF0E1F088234AF0D5
:1007A000EE0FFF1FBB1F661F771F881F9150504021
:1007B000A9F79E3F510570F05CCFA6CF5F3FECF3E9
:1007C000983EDCF3869577956795B795F795E7950D
:1007D0009F5FC1F7FE2B880F911D9695879597F91E
:1007E000089597FB072E16F4009406D077FD08D0E5
:1007F0000BD007FC05D03EF4909581959F4F08954E
:10080000709561957F4F0895AA1BBB1B51E107C0EE
:10081000AA1FBB1FA617B70710F0A61BB70B881F90
:10082000991F5A95A9F780959095BC01CD0108951F
:04083000F894FFCF6A
:00000001FF
